:1000000071C000008EC000008CC000008AC00000DB
:1000100088C0000086C0000084C0000082C00000CC
:1000200080C000007EC000007CC00000E7C000006F
:1000300078C0000076C0000074C0000072C00000EC
:1000400070C000006EC000006CC000006AC00000FC
:1000500068C0000066C0000064C0000062C000000C
:1000600060C0000075C100005CC000005AC0000004
:1000700058C0000056C0000054C0000052C000002C
:1000800050C000004EC000004CC000002CC1000059
:1000900048C0000046C0000044C0000042C000004C
:1000A00040C000003EC000003CC000003AC000005C
:1000B00038C0000036C0000034C0000032C000006C
:1000C00030C000002EC000002CC000002AC000007C
:1000D00028C0000026C0000024C0000022C000008C
:1000E00020C0000011241FBECFEFD1E2DEBFCDBF84
:1000F00000E00CBF12E0A0E0B2E0E6E9F5E000E0CD
:100100000BBF02C007900D92A230B107D9F722E0D1
:10011000A2E0B2E001C01D92A538B207E1F702D01B
:1001200038C26ECFE1E2F1E0808183608083279A5C
:1001300040E050E012C0F901E80FF91FEE0FFF1F79
:10014000E45FFD4F1182108201968C30910599F782
:100150004F5F5F4F4530510561F080E090E09A01BC
:10016000220F331F240F351F220F331F220F331F7F
:10017000E2CF80E090E016D13CD154D163D19FD141
:10018000789404E211E00F2EFCE0FF2EF02DCCE677
:10019000D2E0F80180819181803C9D4578F080918A
:1001A000000267D1882351F080910002843020F44E
:1001B0008F5F8093000202C01092000280910202C1
:1001C000813019F4F092080202C010920802809166
:1001D000080202D188819981449724F48CE291E04D
:1001E0001CD1D7CF888199814F9724F088EC90E07B
:1001F00014D1CFCF8AEF90E010D1CBCF1F920F92C6
:100200000FB60F9211240BB60F922F933F935F936B
:100210006F937F938F939F93AF93BF93EF93FF93CE
:10022000809106012091070290E002C09595879584
:100230002A95E2F780FF06C0109295001092940074
:100240002F9A3FC02F9880919400909195009093A1
:100250000502809304028091070290E0FC01EE0FFA
:10026000FF1FE80FF91FEE0FFF1FEE0FFF1FEE0F2E
:10027000FF1FE45FFD4F828193818C3020F08F5F00
:100280008093030203C082E080930302209107025F
:1002900030E0809104029091050264E770E052D151
:1002A000F901EE0FFF1FE20FF31FEE0FFF1FEE0F1E
:1002B000FF1FEE0FFF1FE45FFD4F718360831092FD
:1002C0000602FF91EF91BF91AF919F918F917F9126
:1002D0006F915F913F912F910F900BBE0F900FBECA
:1002E0000F901F9018951F920F920FB60F92112426
:1002F000109206020F900FBE0F901F901895CF938B
:10030000DF9380918402882319F08130D1F01DC0E1
:10031000CCE0D2E088819981DED0888D998DDBD0C8
:1003200088A999A9D8D08091540290915502D3D030
:1003300080916C0290916D02CED080910802CBD05A
:1003400004C080910B0280930202DF91CF91089547
:100350001F920F920FB60F9211240BB60F922F938C
:100360003F934F935F936F937F938F939F93AF933D
:10037000BF93EF93FF93B7D0892B09F0C0DFFF91B4
:10038000EF91BF91AF919F918F917F916F915F910D
:100390004F913F912F910F900BBE0F900FBE0F907A
:1003A0001F901895E1E0F1E0808188608083E0EAA9
:1003B000F0E0808182688083E1EAF0E080818A61F8
:1003C00080838FEF9FEF9093A7008093A6001092F9
:1003D000A9001092A80008952FE832E0482F429F0C
:1003E000C001439F900D11249093A9008093A80011
:1003F0000895259A82E8809380008BE180938100A4
:1004000088E893E190938700809386008AEF90E0DC
:100410009093890080938800089590938900809339
:1004200088000895E1E2F1E0808182608083E1E963
:10043000F0E0808182608083E1E7F0E0808181608C
:1004400080830895E7E0F1E08081807E808381B140
:100450008F6181B982B1807E82B988B1807E88B98E
:10046000E8E6F0E08081846080838FE380936D0014
:10047000089590910602911120C08093070291E0A7
:100480009093060292B121E030E002C0220F331FA8
:100490008A95E2F7892F822B82B91092250110925A
:1004A0002401E4E2F1E0808191814497E0F382B19C
:1004B0002095282322B981E0089580E008951092C4
:1004C000C50087E68093C40088E98093C10086E078
:1004D0008093C2000895E0ECF0E0908195FFFDCF9D
:1004E0008093C600089580910A0281110EC0809108
:1004F000C6008093840210920B0210920902809130
:100500000A028F5F80930A0214C080910A02813030
:1005100051F48091C60080930B0280910A028F5F94
:1005200080930A0206C08091C6008093090210924F
:100530000A0220910A0281E090E0222311F080E07B
:1005400090E0089597FB072E16F4009406D077FDEF
:1005500008D00BD007FC05D03EF4909581959F4FB5
:100560000895709561957F4F0895AA1BBB1B51E1BB
:1005700007C0AA1FBB1FA617B70710F0A61BB70B13
:10058000881F991F5A95A9F780959095BC01CD01B8
:060590000895F894FFCF6E
:0205960004005F
:00000001FF
