:1000000071C000008EC000008CC000008AC00000DB
:1000100088C0000086C0000084C0000082C00000CC
:1000200080C000007EC000007CC000007BC00000DB
:1000300078C0000076C0000074C0000072C00000EC
:1000400070C000006EC000006CC000006AC00000FC
:1000500068C0000066C0000064C0000062C000000C
:1000600060C00000F9C100005CC000005AC0000080
:1000700058C0000056C0000054C0000052C000002C
:1000800050C000004EC000004CC00000AAC10000DB
:1000900048C0000046C0000044C0000042C000004C
:1000A00040C000003EC000003CC000003AC000005C
:1000B00038C0000036C0000034C0000032C000006C
:1000C00030C000002EC000002CC000002AC000007C
:1000D00028C0000026C0000024C0000022C000008C
:1000E00020C0000011241FBECFEFD1E2DEBFCDBF84
:1000F00000E00CBF12E0A0E0B2E0EAE1F9E000E0CD
:100100000BBF02C007900D92A430B107D9F722E0CF
:10011000A4E0B2E001C01D92AA38B207E1F70DD207
:10012000FAC36ECF1F920F920FB60F9211240BB627
:100130000F920F931F932F933F934F935F936F9360
:100140007F938F939F93AF93BF93CF93DF93EF935F
:10015000FF938091060120910D0290E002C09595D9
:1001600087952A95E2F780FF05C0109295001092BE
:10017000940020C1809194009091950090930B027F
:1001800080930A0280910D0290E020910D0230E0F0
:10019000F901EE0FFF1FE20FF31FEE0FFF1FEE0F2F
:1001A000FF1FEE0FFF1FEF5EFD4F20853185FC0125
:1001B000EE0FFF1FE80FF91FEE0FFF1FEE0FFF1FDF
:1001C000EE0FFF1FEF5EFD4F3387228780910D02F8
:1001D00090E020910D0230E0F901EE0FFF1FE20FD9
:1001E000F31FEE0FFF1FEE0FFF1FEE0FFF1FEF5E5F
:1001F000FD4F26813781FC01EE0FFF1FE80FF91F2D
:10020000EE0FFF1FEE0FFF1FEE0FFF1FEF5EFD4F04
:100210003187208780910D0290E020910D0230E01F
:10022000F901EE0FFF1FE20FF31FEE0FFF1FEE0F9E
:10023000FF1FEE0FFF1FEF5EFD4F24813581FC0194
:10024000EE0FFF1FE80FF91FEE0FFF1FEE0FFF1F4E
:10025000EE0FFF1FEF5EFD4F3783268380910D0267
:1002600090E020910D0230E0F901EE0FFF1FE20F48
:10027000F31FEE0FFF1FEE0FFF1FEE0FFF1FEF5ECE
:10028000FD4F22813381FC01EE0FFF1FE80FF91FA4
:10029000EE0FFF1FEE0FFF1FEE0FFF1FEF5EFD4F74
:1002A0003583248320910D0230E080910A029091E1
:1002B0000B0264E770E008D3F901EE0FFF1FE20FB5
:1002C000F31FEE0FFF1FEE0FFF1FEE0FFF1FEF5E7E
:1002D000FD4F73836283C0910D02D0E080910D02C7
:1002E00090E0FC01EE0FFF1FE80FF91FEE0FFF1F5C
:1002F000EE0FFF1FEE0FFF1FEF5EFD4F0281138118
:1003000080910D0290E0FC01EE0FFF1FE80FF91F36
:10031000EE0FFF1FEE0FFF1FEE0FFF1FEF5EFD4FF3
:100320002481358180910D0290E0FC01EE0FFF1FCA
:10033000E80FF91FEE0FFF1FEE0FFF1FEE0FFF1F5D
:10034000EF5EFD4F4681578180910D0290E0FC01E8
:10035000EE0FFF1FE80FF91FEE0FFF1FEE0FFF1F3D
:10036000EE0FFF1FEF5EFD4F6085718580910D02DE
:1003700090E0FC01EE0FFF1FE80FF91FEE0FFF1FCB
:10038000EE0FFF1FEE0FFF1FEF5EFD4F828593857F
:1003900091D19E01220F331FC20FD31FCC0FDD1F3F
:1003A000CC0FDD1FCC0FDD1FCF5EDD4F998388831F
:1003B00010920C02FF91EF91DF91CF91BF91AF911D
:1003C0009F918F917F916F915F914F913F912F916D
:1003D0001F910F910F900BBE0F900FBE0F901F90AB
:1003E00018951F920F920FB60F92112410920C02C3
:1003F0000F900FBE0F901F901895CF93DF938091B1
:1004000089028130E9F018F08230F9F022C0C1E1B0
:10041000D2E08881998121D2888D998D1ED288A9B8
:1004200099A91BD28091590290915A0216D28091BB
:1004300071029091720211D2809109020ED209C00C
:10044000809110028093090204C080911002809371
:100450000802DF91CF9108951F920F920FB60F926D
:1004600011240BB60F922F933F934F935F936F938B
:100470007F938F939F93AF93BF93EF93FF93F5D1A8
:10048000892B09F0BADFFF91EF91BF91AF919F9156
:100490008F917F916F915F914F913F912F910F902D
:1004A0000BBE0F900FBE0F901F9018952091000269
:1004B0003091010282179307CCF48091060290914B
:1004C0000702883542E0940734F4019690930702BE
:1004D0008093060226C021503109309301022093F7
:1004E000000210920702109206021BC0281739075B
:1004F000C4F48091060290910702883542E0940787
:1005000034F4019690930702809306020AC02F5F8D
:100510003F4F309301022093000210920702109285
:100520000602809100029091010239C108959093D2
:1005300001028093000233C10895E1E2F1E080817D
:1005400083608083279A40E050E012C0F901E80FF1
:10055000F91FEE0FFF1FEF5EFD4F11821082019613
:100560008C30910599F74F5F5F4F4530510561F031
:1005700080E090E09A01220F331F240F351F220FD5
:10058000331F220F331FE2CF80E090E0CDD0F3D0B5
:100590000BD11AD156D1789404E211E0C1E1D2E036
:1005A000FF24F394F80180819181803E9E4278F08F
:1005B0008091020220D1882351F080910202823082
:1005C00020F48F5F8093020202C010920202809199
:1005D0000802C4D080910902811147C088819981A5
:1005E00088974CF0888D998D8536910524F08CE2A2
:1005F00091E05CDF20C08881998188974CF0888DDC
:10060000998D8436910524F48AEF90E04FDF13C072
:1006100088819981849724F488EC90E047DF0BC0AF
:1006200088819981849724F48AEF90E03FDF03C0AA
:100630008AEF90E03BDF88A999A98634910584F47C
:100640008091040290910502863091051CF0F09291
:100650000902A8CF01969093050280930402A2CFCD
:1006600010920502109204029DCF813009F09ACFBA
:100670008CE291E05CDF888D998D843B9105ACF034
:1006800088A999A9843B910584F0809104029091F6
:100690000502863091051CF01092090283CF019665
:1006A00090930502809304027DCF10920502109270
:1006B000040278CF0F931F936817790734F48627C5
:1006C000972768277927862797270217130734F477
:1006D00020273127022713272027312748175907BA
:1006E00034F48427952748275927842795274617C8
:1006F000570734F46427752746275727642775273B
:10070000281739070CF49C01421753070CF49A017F
:10071000061717070CF4B801CB01621773070CF426
:10072000C9011F910F910895E1E0F1E08081886097
:100730008083E0EAF0E0808182688083E1EAF0E093
:1007400080818A6180838FEF9FEF9093A7008093D1
:10075000A6001092A9001092A80008952FE832E098
:10076000482F429FC001439F900D11249093A900F0
:100770008093A8000895259A82E8809380008BE1F9
:100780008093810088E893E19093870080938600AE
:100790008AEF90E090938900809388000895909369
:1007A0008900809388000895E1E2F1E08081826011
:1007B0008083E1E9F0E0808182608083E1E7F0E01E
:1007C0008081816080830895E7E0F1E08081807E10
:1007D000808381B18F6181B982B1807E82B988B115
:1007E000807E88B9E8E6F0E08081846080838FE3D2
:1007F00080936D00089590910C02911120C0809318
:100800000D0291E090930C0292B121E030E002C021
:10081000220F331F8A95E2F7892F822B82B910921B
:10082000250110922401E4E2F1E080819181449756
:10083000E0F382B12095282322B981E0089580E079
:1008400008951092C50087E68093C40088E98093DC
:10085000C10086E08093C2000895E0ECF0E0908152
:1008600095FFFDCF8093C600089580910F028111FE
:100870000EC08091C60080938902109210021092DF
:100880000E0280910F028F5F80930F0214C080913F
:100890000F02813051F48091C60080931002809144
:1008A0000F028F5F80930F0206C08091C600809375
:1008B0000E0210920F0220910F0281E090E022239D
:1008C00011F080E090E0089597FB072E16F4009455
:1008D00006D077FD08D00BD007FC05D03EF49095EC
:1008E00081959F4F0895709561957F4F0895AA1B3C
:1008F000BB1B51E107C0AA1FBB1FA617B70710F00B
:10090000A61BB70B881F991F5A95A9F7809590953C
:0A091000BC01CD010895F894FFCF5B
:04091A00FA000400DB
:00000001FF
