:1000000071C000008EC000008CC000008AC00000DB
:1000100088C0000086C0000084C0000082C00000CC
:1000200080C000007EC000007CC000007BC00000DB
:1000300078C0000076C0000074C0000072C00000EC
:1000400070C000006EC000006CC000006AC00000FC
:1000500068C0000066C0000064C0000062C000000C
:1000600060C0000016C200005CC000005AC0000062
:1000700058C0000056C0000054C0000052C000002C
:1000800050C000004EC000004CC00000B8C10000CD
:1000900048C0000046C0000044C0000042C000004C
:1000A00040C000003EC000003CC000003AC000005C
:1000B00038C0000036C0000034C0000032C000006C
:1000C00030C000002EC000002CC000002AC000007C
:1000D00028C0000026C0000024C0000022C000008C
:1000E00020C0000011241FBECFEFD1E2DEBFCDBF84
:1000F00000E00CBF12E0A0E0B2E0E4EAFBE000E0C8
:100100000BBF02C007900D92A430B107D9F722E0CF
:10011000A4E0B2E001C01D92AB38B207E1F72AD2E9
:100120003FC56ECF1F920F920FB60F9211240BB6E0
:100130000F920F931F932F933F934F935F936F9360
:100140007F938F939F93AF93BF93CF93DF93EF935F
:10015000FF938091060120910E0290E002C09595D8
:1001600087952A95E2F780FF05C0109295001092BE
:1001700094002EC1809194009091950090930C0270
:1001800080930B0280910E0290E020910E0230E0ED
:10019000F901EE0FFF1FE20FF31FEE0FFF1FEE0F2F
:1001A000FF1FEE0FFF1FEE5EFD4F20853185FC0126
:1001B000EE0FFF1FE80FF91FEE0FFF1FEE0FFF1FDF
:1001C000EE0FFF1FEE5EFD4F3387228780910E02F8
:1001D00090E020910E0230E0F901EE0FFF1FE20FD8
:1001E000F31FEE0FFF1FEE0FFF1FEE0FFF1FEE5E60
:1001F000FD4F26813781FC01EE0FFF1FE80FF91F2D
:10020000EE0FFF1FEE0FFF1FEE0FFF1FEE5EFD4F05
:100210003187208780910E0290E020910E0230E01D
:10022000F901EE0FFF1FE20FF31FEE0FFF1FEE0F9E
:10023000FF1FEE0FFF1FEE5EFD4F24813581FC0195
:10024000EE0FFF1FE80FF91FEE0FFF1FEE0FFF1F4E
:10025000EE0FFF1FEE5EFD4F3783268380910E0267
:1002600090E020910E0230E0F901EE0FFF1FE20F47
:10027000F31FEE0FFF1FEE0FFF1FEE0FFF1FEE5ECF
:10028000FD4F22813381FC01EE0FFF1FE80FF91FA4
:10029000EE0FFF1FEE0FFF1FEE0FFF1FEE5EFD4F75
:1002A00035832483C0910E02D0E060910B027091DF
:1002B0000C02772314F46F5F7F4F75956795072EB7
:1002C000000C880B990BE0D32AE939E949EB50E49B
:1002D00040D3A7D39E01220F331FC20FD31FCC0FD1
:1002E000DD1FCC0FDD1FCC0FDD1FCE5EDD4F7B830E
:1002F0006A83C0910E02D0E080910E0290E0FC0172
:10030000EE0FFF1FE80FF91FEE0FFF1FEE0FFF1F8D
:10031000EE0FFF1FEE5EFD4F0281138180910E02F2
:1003200090E0FC01EE0FFF1FE80FF91FEE0FFF1F1B
:10033000EE0FFF1FEE0FFF1FEE5EFD4F2481358194
:1003400080910E0290E0FC01EE0FFF1FE80FF91FF5
:10035000EE0FFF1FEE0FFF1FEE0FFF1FEE5EFD4FB4
:100360004681578180910E0290E0FC01EE0FFF1F45
:10037000E80FF91FEE0FFF1FEE0FFF1FEE0FFF1F1D
:10038000EE5EFD4F6085718580910E0290E0FC016C
:10039000EE0FFF1FE80FF91FEE0FFF1FEE0FFF1FFD
:1003A000EE0FFF1FEE5EFD4F82859385CAD19E0141
:1003B000220F331FC20FD31FCC0FDD1FCC0FDD1F49
:1003C000CC0FDD1FCE5EDD4F9983888310920D0226
:1003D000FF91EF91DF91CF91BF91AF919F918F915D
:1003E0007F916F915F914F913F912F911F910F914D
:1003F0000F900BBE0F900FBE0F901F9018951F927D
:100400000F920FB60F92112410920D020F900FBE93
:100410000F901F901895CF93DF9380918A028130BF
:1004200039F128F0823049F1833061F12FC0C2E107
:10043000D2E08881998156D288819981892F52D2C0
:10044000888D998D4FD2888D998D892F4BD288A90F
:1004500099A948D280915A0290915B0243D280912F
:100460007202909173023ED280910A023BD20EC07A
:100470008091110280930A0209C080911102809339
:10048000090204C08091110280930802DF91CF918C
:1004900008951F920F920FB60F9211240BB60F9270
:1004A0002F933F934F935F936F937F938F939F937C
:1004B000AF93BF93EF93FF931DD2892B09F0ABDF6E
:1004C000FF91EF91BF91AF919F918F917F916F912C
:1004D0005F914F913F912F910F900BBE0F900FBEE8
:1004E0000F901F9018952091000230910102821701
:1004F0009307CCF48091060290910702883542E080
:10050000940734F40196909307028093060226C064
:10051000215031093093010220930002109207020A
:10052000109206021BC028173907C4F480910602F6
:1005300090910702883542E0940734F40196909335
:100540000702809306020AC02F5F3F4F30930102DB
:10055000209300021092070210920602809100027E
:100560009091010261C1089590930102809300026D
:100570005BC10895279A8AB183608AB98BB1836081
:100580008BB940E050E012C0F901E80FF91FEE0FFF
:10059000FF1FEE5EFD4F1182108201968C30910597
:1005A00099F74F5F5F4F4530510561F080E090E073
:1005B0009A01220F331F240F351F220F331F220FE2
:1005C000331FE2CF80E090E0F6D01AD132D141D192
:1005D0007DD1789404E211E0FF24F394C2E1D2E0EB
:1005E000F80180819181803E9E4270F080910202EC
:1005F00047D1882349F080910202811103C0F09213
:10060000020202C01092020280910802882321F0A7
:1006100080910902E4D002C080E0E1D080910A021A
:10062000811163C0888199818039914064F0888DFF
:10063000998D28813981821B930B059724F08CE2D8
:1006400091E051DF38C0888199818039914064F010
:10065000888D998D28813981821B930B059724F40D
:100660008AEF90E040DF27C0888199818F359140E3
:100670006CF4888D998D28813981821B930B181613
:10068000190624F088EC90E02EDF15C0888199814E
:100690008F3591406CF4888D998D28813981821B2A
:1006A000930B1816190624F48AEF90E01CDF03C0A0
:1006B0008AEF90E018DF888D998D8132934084F025
:1006C0008091040290910502863091051CF0F09211
:1006D0000A0286CF0196909305028093040280CF90
:1006E00010920502109204027BCF813009F078CF7E
:1006F0008CE291E039DF888D998D28813981821BC8
:10070000930BC297CCF4888D998D28813981821BF7
:10071000930B8F3C9F4F84F08091040290910502CF
:10072000863091051CF010920A025ACF01969093E0
:1007300005028093040254CF109205021092040225
:100740004FCF0F931F936817790734F486279727A5
:1007500068277927862797270217130734F420275D
:10076000312702271327202731274817590734F448
:100770008427952748275927842795274617570701
:1007800034F46427752746275727642775272817C9
:1007900039070CF49C01421753070CF49A01061711
:1007A00017070CF4B801CB01621773070CF4C901E9
:1007B0001F910F910895E1E0F1E0808188608083CE
:1007C000E0EAF0E0808183688083E1EAF0E0808104
:1007D0008A6080831092A9001092A800089590E08A
:1007E0009C01220F331F880F991F880F991F880FB4
:1007F000991F820F931F9093A9008093A8000895DA
:10080000259A82E8809380008BE18093810088E8BC
:1008100093E190938700809386008AEF90E0909315
:1008200089008093880008959093890080938800C0
:100830000895E1E2F1E0808182608083E1E9F0E007
:10084000808182608083E1E7F0E080818160808345
:100850000895E7E0F1E08081807E808381B18F613F
:1008600081B982B1807E82B988B1807E88B9E8E69C
:10087000F0E08081846080838FE380936D00089531
:1008800090910D02911120C080930E0291E09093FF
:100890000D0292B121E030E002C0220F331F8A9591
:1008A000E2F7892F822B82B9109225011092240140
:1008B000E4E2F1E0808191814497E0F382B12095F8
:1008C000282322B981E0089580E008951092C500A0
:1008D00087E68093C40088E98093C10086E0809316
:1008E000C2000895E0ECF0E0908195FFFDCF809389
:1008F000C60008958091100281110EC08091C6003B
:1009000080938A021092110210920F0280911002BD
:100910008F5F8093100214C080911002813051F4D7
:100920008091C60080931102809110028F5F8093A6
:10093000100206C08091C60080930F021092100230
:100940002091100281E090E0222311F080E090E0FD
:1009500008950CD0EBC0E3D040F0DAD030F021F4B1
:100960005F3F19F0CCC0511115C1CFC0F0D098F342
:100970009923C9F35523B1F3951B550BBB27AA2720
:1009800062177307840738F09F5F5F4F220F331F92
:10099000441FAA1FA9F333D00E2E3AF0E0E830D05E
:1009A00091505040E695001CCAF729D0FE2F27D061
:1009B000660F771F881FBB1F261737074807AB072F
:1009C000B0E809F0BB0B802DBF01FF2793585F4FA4
:1009D0002AF09E3F510568F092C0DCC05F3FECF307
:1009E000983EDCF3869577956795B795F7959F5F69
:1009F000C9F7880F911D9695879597F90895E1E0BD
:100A0000660F771F881FBB1F621773078407BA071B
:100A100020F0621B730B840BBA0BEE1F88F7E09576
:100A2000089504D06894B111B5C0089598D088F0A5
:100A30009F5790F0B92F9927B751A0F0D1F0660FCA
:100A4000771F881F991F1AF0BA95C9F712C0B130E5
:100A500081F09FD0B1E008959CC0672F782F882740
:100A6000B85F39F0B93FCCF3869577956795B39524
:100A7000D9F73EF490958095709561957F4F8F4F93
:100A80009F4F0895E89409C097FB3EF49095809598
:100A9000709561957F4F8F4F9F4F9923A9F0F92F44
:100AA00096E9BB279395F695879577956795B795C2
:100AB000F111F8CFFAF4BB0F11F460FF1BC06F5FA8
:100AC0007F4F8F4F9F4F16C0882311F096E911C0BA
:100AD000772321F09EE8872F762F05C0662371F0DB
:100AE00096E8862F70E060E02AF09A95660F771FEF
:100AF000881FDAF7880F9695879597F9089597F9E3
:100B00009F6780E870E060E008959FEF80EC0895B3
:100B100000240A94161617061806090608950024DC
:100B20000A9412161306140605060895092E039456
:100B3000000C11F4882352F0BB0F40F4BF2B11F4CA
:100B400060FF04C06F5F7F4F8F4F9F4F089557FD29
:100B50009058440F551F59F05F3F71F04795880F2B
:100B600097FB991F61F09F3F79F0879508951216C2
:100B700013061406551FF2CF4695F1DF08C016166E
:100B800017061806991FF1CF86957105610508941F
:100B90000895E894BB2766277727CB0197F9089536
:040BA000F894FFCFF7
:040BA400FA0004004F
:00000001FF
