:1000000071C0000081C000007FC000007DC0000002
:100010007BC0000079C0000077C0000075C0000000
:1000200073C0000071C000006FC000006DC0000010
:100030006BC0000069C0000067C0000065C0000020
:1000400063C0000061C000005FC000005DC0000030
:100050005BC0000059C0000057C0000055C0000040
:1000600053C00000FDC000004FC000004DC00000A4
:100070004BC0000049C0000047C0000045C0000060
:1000800043C0000041C000003FC000003DC0000070
:100090003BC0000039C0000037C0000035C0000080
:1000A00033C0000031C000002FC000002DC0000090
:1000B0002BC0000029C0000027C0000025C00000A0
:1000C00023C0000021C000001FC000001DC00000B0
:1000D0001BC0000019C0000017C0000015C00000C0
:1000E00013C0000011241FBECFEFD1E2DEBFCDBF91
:1000F00000E00CBF22E0A0E0B2E001C01D92A434F9
:10010000B207E1F702D0D1C17BCFE1E2F1E080811B
:100110008360808380E090E0CDD0F3D00BD110D10C
:1001200059D112E3C7E0D2E080910002813019F486
:100130001093030202C01092030280910302D4D0F4
:1001400088A999A98431910524F48CE291E0EDD03D
:10015000EBCF4F9724F088EC90E0E7D0E5CF8AEF23
:1001600090E0E3D0E1CFEF92FF920F931F93CF93F4
:10017000DF93082F10E07801EE0CFF1CE701C00FA1
:10018000D11FCC0FDD1FCC0FDD1FC95FDD4F2885D0
:1001900039853B872A872E813F81398728872C81A3
:1001A0003D813F832E832A813B813D832C83D5D0A3
:1001B0009B838A832C813D81820F931F2E813F81F7
:1001C000820F931F28853985820F931F2A853B85CF
:1001D000820F931F65E070E041D179836883DF91DE
:1001E000CF911F910F91FF90EF900895CF93DF93E0
:1001F00080914302882319F0813059F12EC0C4E266
:10020000D1E01982188280E0AEDF81E0ACDF82E0CD
:10021000AADF83E0A8DF84E0A6DF8881998190933C
:10022000020280930102C7E0D2E08881E0D08C8591
:10023000DED0888DDCD08CA1DAD088A9D8D080918E
:100240000302D5D080910102D2D080910202CFD09A
:1002500004C08091060280930002DF91CF9108953F
:100260001F920F920FB60F9211240BB60F922F937D
:100270003F934F935F936F937F938F939F93AF932E
:10028000BF93EF93FF93BBD0892B09F0AFDFFF91B2
:10029000EF91BF91AF919F918F917F916F915F91FE
:1002A0004F913F912F910F900BBE0F900FBE0F906B
:1002B0001F901895E1E0F1E0808188608083E0EA9A
:1002C000F0E0808182688083E1EAF0E080818A61E9
:1002D00080838FEF9FEF9093A7008093A6001092EA
:1002E000A9001092A80008952FE832E0482F429FFD
:1002F000C001439F900D11249093A9008093A80002
:100300000895259A82E8809380008BE18093810094
:1003100088E893E190938700809386008AEF90E0CD
:10032000909389008093880008959093890080932A
:1003300088000895E1E9F0E080818260808308957B
:1003400087B1807E87B981B18F6181B982B1807EAA
:1003500082B988B1807E88B9089592B121E030E0F9
:1003600002C0220F331F8A95E2F7922B92B91092A6
:10037000950010929400E4E9F0E080819181449727
:10038000E0F382B1922F9095892382B91092950063
:100390001092940086B190E082239323892BD1F3AD
:1003A0001092950010929400E4E9F0E086B190E09C
:1003B00082239323892B29F080819181883D99455F
:1003C000A8F3809194009091950064E770E046D086
:1003D000CB0108951092C50087E68093C40088E998
:1003E0008093C10086E08093C20078940895E0EC89
:1003F000F0E0908195FFFDCF8093C6000895809135
:10040000050281110EC08091C600809343021092B4
:10041000060210920402809105028F5F809305020C
:1004200014C080910502813051F48091C600809300
:100430000602809105028F5F8093050206C08091BD
:10044000C60080930402109205022091050281E00B
:1004500090E0222311F080E090E0089597FB072EB2
:1004600016F4009406D077FD08D00BD007FC05D019
:100470003EF4909581959F4F0895709561957F4FBB
:100480000895AA1BBB1B51E107C0AA1FBB1FA617DB
:10049000B70710F0A61BB70B881F991F5A95A9F72D
:0E04A00080959095BC01CD010895F894FFCF92
:00000001FF
